{"abi":[{"type":"constructor","inputs":[{"name":"factory","type":"address","internalType":"contract IEscrowFactory"},{"name":"lop","type":"address","internalType":"contract IOrderMixin"},{"name":"initialOwner","type":"address","internalType":"address"}],"stateMutability":"nonpayable"},{"type":"receive","stateMutability":"payable"},{"type":"function","name":"arbitraryCalls","inputs":[{"name":"targets","type":"address[]","internalType":"address[]"},{"name":"arguments","type":"bytes[]","internalType":"bytes[]"}],"outputs":[],"stateMutability":"nonpayable"},{"type":"function","name":"deployDst","inputs":[{"name":"dstImmutables","type":"tuple","internalType":"struct IBaseEscrow.Immutables","components":[{"name":"orderHash","type":"bytes32","internalType":"bytes32"},{"name":"hashlock","type":"bytes32","internalType":"bytes32"},{"name":"maker","type":"uint256","internalType":"Address"},{"name":"taker","type":"uint256","internalType":"Address"},{"name":"token","type":"uint256","internalType":"Address"},{"name":"amount","type":"uint256","internalType":"uint256"},{"name":"safetyDeposit","type":"uint256","internalType":"uint256"},{"name":"timelocks","type":"uint256","internalType":"Timelocks"}]},{"name":"srcCancellationTimestamp","type":"uint256","internalType":"uint256"}],"outputs":[],"stateMutability":"payable"},{"type":"function","name":"deploySrc","inputs":[{"name":"immutables","type":"tuple","internalType":"struct IBaseEscrow.Immutables","components":[{"name":"orderHash","type":"bytes32","internalType":"bytes32"},{"name":"hashlock","type":"bytes32","internalType":"bytes32"},{"name":"maker","type":"uint256","internalType":"Address"},{"name":"taker","type":"uint256","internalType":"Address"},{"name":"token","type":"uint256","internalType":"Address"},{"name":"amount","type":"uint256","internalType":"uint256"},{"name":"safetyDeposit","type":"uint256","internalType":"uint256"},{"name":"timelocks","type":"uint256","internalType":"Timelocks"}]},{"name":"order","type":"tuple","internalType":"struct IOrderMixin.Order","components":[{"name":"salt","type":"uint256","internalType":"uint256"},{"name":"maker","type":"uint256","internalType":"Address"},{"name":"receiver","type":"uint256","internalType":"Address"},{"name":"makerAsset","type":"uint256","internalType":"Address"},{"name":"takerAsset","type":"uint256","internalType":"Address"},{"name":"makingAmount","type":"uint256","internalType":"uint256"},{"name":"takingAmount","type":"uint256","internalType":"uint256"},{"name":"makerTraits","type":"uint256","internalType":"MakerTraits"}]},{"name":"r","type":"bytes32","internalType":"bytes32"},{"name":"vs","type":"bytes32","internalType":"bytes32"},{"name":"amount","type":"uint256","internalType":"uint256"},{"name":"takerTraits","type":"uint256","internalType":"TakerTraits"},{"name":"args","type":"bytes","internalType":"bytes"}],"outputs":[],"stateMutability":"nonpayable"},{"type":"function","name":"owner","inputs":[],"outputs":[{"name":"","type":"address","internalType":"address"}],"stateMutability":"view"},{"type":"function","name":"renounceOwnership","inputs":[],"outputs":[],"stateMutability":"nonpayable"},{"type":"function","name":"transferOwnership","inputs":[{"name":"newOwner","type":"address","internalType":"address"}],"outputs":[],"stateMutability":"nonpayable"},{"type":"event","name":"OwnershipTransferred","inputs":[{"name":"previousOwner","type":"address","indexed":true,"internalType":"address"},{"name":"newOwner","type":"address","indexed":true,"internalType":"address"}],"anonymous":false},{"type":"error","name":"InvalidLength","inputs":[]},{"type":"error","name":"LengthMismatch","inputs":[]},{"type":"error","name":"NativeTokenSendingFailure","inputs":[]},{"type":"error","name":"OwnableInvalidOwner","inputs":[{"name":"owner","type":"address","internalType":"address"}]},{"type":"error","name":"OwnableUnauthorizedAccount","inputs":[{"name":"account","type":"address","internalType":"address"}]}],"bytecode":{"object":"0x60c0346100f557601f610c2b38819003918201601f19168301916001600160401b038311848410176100f9578084926060946040528339810103126100f55780516001600160a01b03919082811681036100f55760208201519183831683036100f557604001518381168091036100f55780156100dd575f80546001600160a01b03198116831782556040519516907f8be0079c531659141344cd1fd0a4f28419497f9722a3daafe3b4186f6b6457e09080a360805260a052610b1d908161010e82396080518181816102fa0152610717015260a051816104a70152f35b604051631e4fbdf760e01b81525f6004820152602490fd5b5f80fd5b634e487b7160e01b5f52604160045260245ffdfe60406080815260048036101561001e575b5050361561001c575f80fd5b005b5f915f3560e01c80631f3177ba14610814578063318b0562146106bf578063715018a6146106235780638da5cb5b146105d2578063ca218276146101565763f2fde38b1461006c5750610010565b346101525760207ffffffffffffffffffffffffffffffffffffffffffffffffffffffffffffffffc3601126101525781359173ffffffffffffffffffffffffffffffffffffffff9182841680940361014e576100c6610a97565b831561011f5750505f54827fffffffffffffffffffffffff00000000000000000000000000000000000000008216175f55167f8be0079c531659141344cd1fd0a4f28419497f9722a3daafe3b4186f6b6457e05f80a380f35b908460249251917f1e4fbdf7000000000000000000000000000000000000000000000000000000008352820152fd5b8480fd5b8280fd5b509034610152577ffffffffffffffffffffffffffffffffffffffffffffffffffffffffffffffffc3601916102a083126105ce576101008093126105ce57827ffffffffffffffffffffffffffffffffffffffffffffffffffffffffffffffefc3601126105ce576102843567ffffffffffffffff928382116105ca57366023830112156105ca5781810135948486116105c657602494368688860101116105c2576101ff610a97565b84519182019081118282101761059757908493929184528135815260209081810197873589528582019460443586526060998a8401606435815260808501608435815260a086019160a435835260c087019960c4358b528d60e08901954260e01b7bffffffffffffffffffffffffffffffffffffffffffffffffffffffff60e4351617875273ffffffffffffffffffffffffffffffffffffffff9d51997ffb6bd47e000000000000000000000000000000000000000000000000000000008b52518c8b015251908901525160448801525160648701525160848601525160a4850152865160c48501525160e48401528a61010496858589818c7f0000000000000000000000000000000000000000000000000000000000000000165afa94851561058d578295610551575b508180809251875af161033b610a3a565b5015610529579288959261039e60348c858f98966101a09e839d9b988f7fffffffffffffffffffffffffffffffffffffffff00000000000000000000000090519889961b16898601520184840137810188838201520360148101845201826109cc565b8851998a977ff497df750000000000000000000000000000000000000000000000000000000089526101a4948635908a0152610124908135908a0152610144803560448b015261016490813560648c015261018492833560848d0152873560a48d01526101c4988c60c48b359101528c60e46101e43591015261020435908d015261022435908c015261024435908b01527f08000000000000000000000000000000000000000000000000000000000000006102643517908a015288015280518093880152845b83811061050d5750505090847fffffffffffffffffffffffffffffffffffffffffffffffffffffffffffffffe0601f84868585989786010152011681010301927f0000000000000000000000000000000000000000000000000000000000000000165af190811561050457506104d9578280f35b813d83116104fd575b6104ec81836109cc565b810103126104fa575f808280f35b80fd5b503d6104e2565b513d85823e3d90fd5b8082018301518b82018601528b98508a97508c95508201610465565b8488517f8a0332d5000000000000000000000000000000000000000000000000000000008152fd5b9094508581813d8311610586575b61056981836109cc565b810103126105825751888116810361058257938161032a565b5080fd5b503d61055f565b8a513d84823e3d90fd5b856041847f4e487b71000000000000000000000000000000000000000000000000000000005f52525ffd5b8780fd5b8680fd5b8580fd5b8380fd5b83823461058257817ffffffffffffffffffffffffffffffffffffffffffffffffffffffffffffffffc3601126105825773ffffffffffffffffffffffffffffffffffffffff60209254169051908152f35b83346104fa57807ffffffffffffffffffffffffffffffffffffffffffffffffffffffffffffffffc3601126104fa5761065a610a97565b5f73ffffffffffffffffffffffffffffffffffffffff81547fffffffffffffffffffffffff000000000000000000000000000000000000000081168355167f8be0079c531659141344cd1fd0a4f28419497f9722a3daafe3b4186f6b6457e08280a380f35b507ffffffffffffffffffffffffffffffffffffffffffffffffffffffffffffffffc3601610120811261081057610100136108105761010491610700610a97565b73ffffffffffffffffffffffffffffffffffffffff7f00000000000000000000000000000000000000000000000000000000000000001692833b15610810575f906101248451809681937fdea024e4000000000000000000000000000000000000000000000000000000008352863587840152602435602484015260443560448401526064356064840152608435608484015260a43560a484015260c43560c484015260e43560e484015280359083015234905af18015610806576107c3578380f35b9091925067ffffffffffffffff83116107da575052005b6041907f4e487b71000000000000000000000000000000000000000000000000000000005f525260245ffd5b82513d5f823e3d90fd5b5f80fd5b50903461081057817ffffffffffffffffffffffffffffffffffffffffffffffffffffffffffffffffc3601126108105767ffffffffffffffff813581811161081057610863903690840161099b565b926024916024358481116108105761087e903690840161099b565b939092610889610a97565b848703610974575f5b87811061089b57005b8060051b808501359073ffffffffffffffffffffffffffffffffffffffff821682036108105787831015610949578601357fffffffffffffffffffffffffffffffffffffffffffffffffffffffffffffffe187360301811215610810578601908135918983116108105760200190823603821361081057825f80949381948f519384928337810182815203925af1610931610a3a565b501561093f57600101610892565b88513d5f823e3d90fd5b846032857f4e487b71000000000000000000000000000000000000000000000000000000005f52525ffd5b87517fff633a38000000000000000000000000000000000000000000000000000000008152fd5b9181601f840112156108105782359167ffffffffffffffff8311610810576020808501948460051b01011161081057565b90601f7fffffffffffffffffffffffffffffffffffffffffffffffffffffffffffffffe0910116810190811067ffffffffffffffff821117610a0d57604052565b7f4e487b71000000000000000000000000000000000000000000000000000000005f52604160045260245ffd5b3d15610a92573d9067ffffffffffffffff8211610a0d5760405191610a8760207fffffffffffffffffffffffffffffffffffffffffffffffffffffffffffffffe0601f84011601846109cc565b82523d5f602084013e565b606090565b73ffffffffffffffffffffffffffffffffffffffff5f54163303610ab757565b60246040517f118cdaa7000000000000000000000000000000000000000000000000000000008152336004820152fdfea2646970667358221220b46fe64bfea68eb91124e4cd6cf766b16c188d0c6a570d8d28c6f026f2aee20464736f6c63430008170033","linkReferences":{}},"methodIdentifiers":{"arbitraryCalls(address[],bytes[])":"1f3177ba","deployDst((bytes32,bytes32,uint256,uint256,uint256,uint256,uint256,uint256),uint256)":"318b0562","deploySrc((bytes32,bytes32,uint256,uint256,uint256,uint256,uint256,uint256),(uint256,uint256,uint256,uint256,uint256,uint256,uint256,uint256),bytes32,bytes32,uint256,uint256,bytes)":"ca218276","owner()":"8da5cb5b","renounceOwnership()":"715018a6","transferOwnership(address)":"f2fde38b"},"id":20}